{
  "contractName": "VoterRegistry",
  "abi": [
    {
      "anonymous": false,
      "inputs": [
        {
          "indexed": true,
          "internalType": "address",
          "name": "voterAddress",
          "type": "address"
        }
      ],
      "name": "VoterRegistered",
      "type": "event"
    },
    {
      "inputs": [
        {
          "internalType": "address",
          "name": "",
          "type": "address"
        }
      ],
      "name": "voters",
      "outputs": [
        {
          "internalType": "string",
          "name": "fullName",
          "type": "string"
        },
        {
          "internalType": "string",
          "name": "dateOfBirth",
          "type": "string"
        },
        {
          "internalType": "string",
          "name": "gender",
          "type": "string"
        },
        {
          "internalType": "string",
          "name": "residentialAddress",
          "type": "string"
        },
        {
          "internalType": "string",
          "name": "phoneNumber",
          "type": "string"
        },
        {
          "internalType": "string",
          "name": "governmentId",
          "type": "string"
        },
        {
          "internalType": "string",
          "name": "photoHash",
          "type": "string"
        },
        {
          "internalType": "bool",
          "name": "exists",
          "type": "bool"
        }
      ],
      "stateMutability": "view",
      "type": "function",
      "constant": true
    },
    {
      "inputs": [
        {
          "internalType": "string",
          "name": "_fullName",
          "type": "string"
        },
        {
          "internalType": "string",
          "name": "_dateOfBirth",
          "type": "string"
        },
        {
          "internalType": "string",
          "name": "_gender",
          "type": "string"
        },
        {
          "internalType": "string",
          "name": "_residentialAddress",
          "type": "string"
        },
        {
          "internalType": "string",
          "name": "_phoneNumber",
          "type": "string"
        },
        {
          "internalType": "string",
          "name": "_governmentId",
          "type": "string"
        },
        {
          "internalType": "string",
          "name": "_photoHash",
          "type": "string"
        }
      ],
      "name": "registerVoter",
      "outputs": [],
      "stateMutability": "nonpayable",
      "type": "function"
    },
    {
      "inputs": [
        {
          "internalType": "address",
          "name": "_voterAddress",
          "type": "address"
        }
      ],
      "name": "getVoter",
      "outputs": [
        {
          "internalType": "string",
          "name": "fullName",
          "type": "string"
        },
        {
          "internalType": "string",
          "name": "dateOfBirth",
          "type": "string"
        },
        {
          "internalType": "string",
          "name": "gender",
          "type": "string"
        },
        {
          "internalType": "string",
          "name": "residentialAddress",
          "type": "string"
        },
        {
          "internalType": "string",
          "name": "phoneNumber",
          "type": "string"
        },
        {
          "internalType": "string",
          "name": "governmentId",
          "type": "string"
        },
        {
          "internalType": "string",
          "name": "photoHash",
          "type": "string"
        }
      ],
      "stateMutability": "view",
      "type": "function",
      "constant": true
    }
  ],
  "bytecode": "0x608060405234801561001057600080fd5b50610f4f806100206000396000f3fe608060405234801561001057600080fd5b50600436106100415760003560e01c8063a3ec138d14610046578063d4f50f9814610076578063eb6b5c0a1461009c575b600080fd5b610059610054366004610bd8565b6100b1565b60405161006d989796959493929190610dfb565b60405180910390f35b610089610084366004610bd8565b6104ac565b60405161006d9796959493929190610d64565b6100af6100aa366004610c06565b610967565b005b6000602081905290815260409020805481906100cc90610ec8565b80601f01602080910402602001604051908101604052809291908181526020018280546100f890610ec8565b80156101455780601f1061011a57610100808354040283529160200191610145565b820191906000526020600020905b81548152906001019060200180831161012857829003601f168201915b50505050509080600101805461015a90610ec8565b80601f016020809104026020016040519081016040528092919081815260200182805461018690610ec8565b80156101d35780601f106101a8576101008083540402835291602001916101d3565b820191906000526020600020905b8154815290600101906020018083116101b657829003601f168201915b5050505050908060020180546101e890610ec8565b80601f016020809104026020016040519081016040528092919081815260200182805461021490610ec8565b80156102615780601f1061023657610100808354040283529160200191610261565b820191906000526020600020905b81548152906001019060200180831161024457829003601f168201915b50505050509080600301805461027690610ec8565b80601f01602080910402602001604051908101604052809291908181526020018280546102a290610ec8565b80156102ef5780601f106102c4576101008083540402835291602001916102ef565b820191906000526020600020905b8154815290600101906020018083116102d257829003601f168201915b50505050509080600401805461030490610ec8565b80601f016020809104026020016040519081016040528092919081815260200182805461033090610ec8565b801561037d5780601f106103525761010080835404028352916020019161037d565b820191906000526020600020905b81548152906001019060200180831161036057829003601f168201915b50505050509080600501805461039290610ec8565b80601f01602080910402602001604051908101604052809291908181526020018280546103be90610ec8565b801561040b5780601f106103e05761010080835404028352916020019161040b565b820191906000526020600020905b8154815290600101906020018083116103ee57829003601f168201915b50505050509080600601805461042090610ec8565b80601f016020809104026020016040519081016040528092919081815260200182805461044c90610ec8565b80156104995780601f1061046e57610100808354040283529160200191610499565b820191906000526020600020905b81548152906001019060200180831161047c57829003601f168201915b5050506007909301549192505060ff1688565b6001600160a01b03811660009081526020819052604090206007015460609081908190819081908190819060ff166104ff5760405162461bcd60e51b81526004016104f690610e9f565b60405180910390fd5b6001600160a01b0388166000908152602081905260408082208151610100810190925280548290829061053190610ec8565b80601f016020809104026020016040519081016040528092919081815260200182805461055d90610ec8565b80156105aa5780601f1061057f576101008083540402835291602001916105aa565b820191906000526020600020905b81548152906001019060200180831161058d57829003601f168201915b505050505081526020016001820180546105c390610ec8565b80601f01602080910402602001604051908101604052809291908181526020018280546105ef90610ec8565b801561063c5780601f106106115761010080835404028352916020019161063c565b820191906000526020600020905b81548152906001019060200180831161061f57829003601f168201915b5050505050815260200160028201805461065590610ec8565b80601f016020809104026020016040519081016040528092919081815260200182805461068190610ec8565b80156106ce5780601f106106a3576101008083540402835291602001916106ce565b820191906000526020600020905b8154815290600101906020018083116106b157829003601f168201915b505050505081526020016003820180546106e790610ec8565b80601f016020809104026020016040519081016040528092919081815260200182805461071390610ec8565b80156107605780601f1061073557610100808354040283529160200191610760565b820191906000526020600020905b81548152906001019060200180831161074357829003601f168201915b5050505050815260200160048201805461077990610ec8565b80601f01602080910402602001604051908101604052809291908181526020018280546107a590610ec8565b80156107f25780601f106107c7576101008083540402835291602001916107f2565b820191906000526020600020905b8154815290600101906020018083116107d557829003601f168201915b5050505050815260200160058201805461080b90610ec8565b80601f016020809104026020016040519081016040528092919081815260200182805461083790610ec8565b80156108845780601f1061085957610100808354040283529160200191610884565b820191906000526020600020905b81548152906001019060200180831161086757829003601f168201915b5050505050815260200160068201805461089d90610ec8565b80601f01602080910402602001604051908101604052809291908181526020018280546108c990610ec8565b80156109165780601f106108eb57610100808354040283529160200191610916565b820191906000526020600020905b8154815290600101906020018083116108f957829003601f168201915b50505091835250506007919091015460ff16151560209182015281519082015160408301516060840151608085015160a086015160c090960151949f939e50919c509a509850919650945092505050565b60408051610100810182528881526020808201899052818301889052606082018790526080820186905260a0820185905260c08201849052600160e08301523360009081528082529290922081518051929384936109c89284920190610abe565b5060208281015180516109e19260018501920190610abe565b50604082015180516109fd916002840191602090910190610abe565b5060608201518051610a19916003840191602090910190610abe565b5060808201518051610a35916004840191602090910190610abe565b5060a08201518051610a51916005840191602090910190610abe565b5060c08201518051610a6d916006840191602090910190610abe565b5060e091909101516007909101805460ff191691151591909117905560405133907fb6be2187d059cc2a55fe29e0e503b566e1e0f8c8780096e185429350acffd3dd90600090a25050505050505050565b828054610aca90610ec8565b90600052602060002090601f016020900481019282610aec5760008555610b32565b82601f10610b0557805160ff1916838001178555610b32565b82800160010185558215610b32579182015b82811115610b32578251825591602001919060010190610b17565b50610b3e929150610b42565b5090565b5b80821115610b3e5760008155600101610b43565b600082601f830112610b67578081fd5b813567ffffffffffffffff80821115610b8257610b82610f03565b604051601f8301601f191681016020018281118282101715610ba657610ba6610f03565b604052828152848301602001861015610bbd578384fd5b82602086016020830137918201602001929092529392505050565b600060208284031215610be9578081fd5b81356001600160a01b0381168114610bff578182fd5b9392505050565b600080600080600080600060e0888a031215610c20578283fd5b873567ffffffffffffffff80821115610c37578485fd5b610c438b838c01610b57565b985060208a0135915080821115610c58578485fd5b610c648b838c01610b57565b975060408a0135915080821115610c79578485fd5b610c858b838c01610b57565b965060608a0135915080821115610c9a578485fd5b610ca68b838c01610b57565b955060808a0135915080821115610cbb578485fd5b610cc78b838c01610b57565b945060a08a0135915080821115610cdc578384fd5b610ce88b838c01610b57565b935060c08a0135915080821115610cfd578283fd5b50610d0a8a828b01610b57565b91505092959891949750929550565b60008151808452815b81811015610d3e57602081850181015186830182015201610d22565b81811115610d4f5782602083870101525b50601f01601f19169290920160200192915050565b600060e08252610d7760e083018a610d19565b8281036020840152610d89818a610d19565b90508281036040840152610d9d8189610d19565b90508281036060840152610db18188610d19565b90508281036080840152610dc58187610d19565b905082810360a0840152610dd98186610d19565b905082810360c0840152610ded8185610d19565b9a9950505050505050505050565b6000610100808352610e0f8184018c610d19565b90508281036020840152610e23818b610d19565b90508281036040840152610e37818a610d19565b90508281036060840152610e4b8189610d19565b90508281036080840152610e5f8188610d19565b905082810360a0840152610e738187610d19565b905082810360c0840152610e878186610d19565b91505082151560e08301529998505050505050505050565b6020808252600f908201526e159bdd195c881b9bdd08199bdd5b99608a1b604082015260600190565b600281046001821680610edc57607f821691505b60208210811415610efd57634e487b7160e01b600052602260045260246000fd5b50919050565b634e487b7160e01b600052604160045260246000fdfea2646970667358221220c788297580ccf239dd64f2a28fb90db018be77875754b0891f5ed1e8597cfb1064736f6c63430008000033",
  "immutableReferences": {},
  "source": "// SPDX-License-Identifier: MIT\r\npragma solidity ^0.8.0;\r\n\r\ncontract VoterRegistry {\r\n    struct VoterData {\r\n        string fullName;\r\n        string dateOfBirth;\r\n        string gender;\r\n        string residentialAddress;\r\n        string phoneNumber;\r\n        string governmentId;\r\n        string photoHash;\r\n        bool exists;\r\n    }\r\n    \r\n    mapping(address => VoterData) public voters;\r\n    \r\n    event VoterRegistered(address indexed voterAddress);\r\n\r\n    function registerVoter(\r\n        string memory _fullName,\r\n        string memory _dateOfBirth,\r\n        string memory _gender,\r\n        string memory _residentialAddress,\r\n        string memory _phoneNumber,\r\n        string memory _governmentId,\r\n        string memory _photoHash\r\n    ) public {\r\n        VoterData memory newVoter = VoterData({\r\n            fullName: _fullName,\r\n            dateOfBirth: _dateOfBirth,\r\n            gender: _gender,\r\n            residentialAddress: _residentialAddress,\r\n            phoneNumber: _phoneNumber,\r\n            governmentId: _governmentId,\r\n            photoHash: _photoHash,\r\n            exists: true\r\n        });\r\n        \r\n        voters[msg.sender] = newVoter;\r\n        emit VoterRegistered(msg.sender);\r\n    }\r\n\r\n    function getVoter(address _voterAddress) public view returns (\r\n        string memory fullName,\r\n        string memory dateOfBirth,\r\n        string memory gender,\r\n        string memory residentialAddress,\r\n        string memory phoneNumber,\r\n        string memory governmentId,\r\n        string memory photoHash\r\n    ) {\r\n        require(voters[_voterAddress].exists, \"Voter not found\");\r\n        VoterData memory voter = voters[_voterAddress];\r\n        return (\r\n            voter.fullName,\r\n            voter.dateOfBirth,\r\n            voter.gender,\r\n            voter.residentialAddress,\r\n            voter.phoneNumber,\r\n            voter.governmentId,\r\n            voter.photoHash\r\n        );\r\n    }\r\n} ",
  "sourcePath": "C:\\Users\\Ram Parab\\Documents\\voting-system\\backend\\contracts\\VoterRegistry.sol",
  "compiler": {
    "name": "solc",
    "version": "0.8.0+commit.c7dfd78e.Emscripten.clang"
  },
  "schemaVersion": "3.4.16",
  "updatedAt": "2024-11-09T13:47:54.410Z",
  "networkType": "ethereum",
  "devdoc": {
    "kind": "dev",
    "methods": {},
    "version": 1
  },
  "userdoc": {
    "kind": "user",
    "methods": {},
    "version": 1
  }
}